:040000004EEF09F0C6
:101000000048656C6C6F20576F726C64202D204116
:101010007072696C2032303136005275746800008D
:10102000000E926E9690969296948D908D928D84ED
:10103000090E026E1C0EE82EFED7022EFCD700D041
:10104000300E55EC09F00A0E026EBC0EE82EFED7EB
:10105000022EFCD700D0300E55EC09F00A0E026EBD
:10106000BC0EE82EFED7022EFCD700D0300E55EC79
:1010700009F00A0E026EBC0EE82EFED7022EFCD737
:1010800000D0380E55EC09F00A0E026EBC0EE82EA8
:10109000FED7022EFCD700D0080E55EC09F00A0E40
:1010A000026EBC0EE82EFED7022EFCD700D0010E39
:1010B00055EC09F00A0E026EBC0EE82EFED7022E89
:1010C000FCD700D0060E55EC09F00A0E026EBC0EDD
:1010D000E82EFED7022EFCD700D00F0E55EC09F0FB
:1010E0002BEC09F01200110E086E3A0EE82EFED716
:1010F000082EFCD700D0000E0F01396F10EC08F05D
:10110000938A618A110E086E3A0EE82EFED7082ED9
:10111000FCD700D081AAFED71A0E036E100E046E03
:10112000CEEC08F0010E096E100E0A6E000E0C6E69
:10113000000E0B6E0CBE06D00C5027E1090E0B5CA6
:10114000D8B023D00B500924036E0C500A20046E33
:10115000FFEC08F0A30E086E550EE82EFED7082E01
:10116000FCD700F0A30E086E550EE82EFED7082E11
:10117000FCD700F0290E086E940EE82EFED7082E3C
:10118000FCD700D00B4A0C2AD5D7A30E086E550EFB
:10119000E82EFED7082EFCD700F0C8D7000E076E49
:1011A00046EC09F018D00750010D03C005F004C04B
:1011B00006F0F3500526F450062205C0F6FF06C0DF
:1011C000F7FF0800F55035EC09F0072A100E071854
:1011D000D8B43EEC09F00750010D03C005F004C07F
:1011E00006F0F3500526F450062205C0F6FF06C0AF
:1011F000F7FF0800F5500009D8B41200D4D7000E4C
:10120000076E3EEC09F013D00750010D03C005F046
:1012100004C006F0F3500526F450062205C0F6FF80
:1012200006C0F7FF0800F55035EC09F0072A075013
:10123000010D03C005F004C006F0F3500526F4507C
:10124000062205C0F6FF06C0F7FF0800F5500009AA
:10125000D8B41200D9D7928E8D908D828D948D84C2
:1012600080BEFCD78D84929E1200026E8D808D927E
:10127000025055EC09F02BEC09F012008D908D9284
:10128000C00E55EC09F02BEC09F012008D908D92F8
:10129000010E55EC09F02BEC09F01200000EF86E6F
:1012A000100EF76E000173EF08F0016E01C089FFA8
:0612B0008D948D841200F4
:020000040020DA
:08000000FFFFFFFFFFFFFFFF00
:020000040030CA
:0E000000FF28193CFF3781FF0FC00FE00F40B3
:00000001FF
